{
    "_format": "hh-sol-artifact-1",
    "contractName": "lotary",
    "sourceName": "contracts/lotary.sol",
    "abi": [
        {
            "inputs": [],
            "stateMutability": "nonpayable",
            "type": "constructor"
        },
        {
            "inputs": [],
            "name": "chackWin",
            "outputs": [],
            "stateMutability": "nonpayable",
            "type": "function"
        },
        {
            "inputs": [],
            "name": "ender",
            "outputs": [],
            "stateMutability": "payable",
            "type": "function"
        },
        {
            "inputs": [],
            "name": "maneger",
            "outputs": [
                {
                    "internalType": "address",
                    "name": "",
                    "type": "address"
                }
            ],
            "stateMutability": "view",
            "type": "function"
        },
        {
            "inputs": [
                {
                    "internalType": "uint256",
                    "name": "",
                    "type": "uint256"
                }
            ],
            "name": "player",
            "outputs": [
                {
                    "internalType": "address payable",
                    "name": "",
                    "type": "address"
                }
            ],
            "stateMutability": "view",
            "type": "function"
        },
        {
            "inputs": [],
            "name": "playerName",
            "outputs": [
                {
                    "internalType": "address payable[]",
                    "name": "",
                    "type": "address[]"
                }
            ],
            "stateMutability": "view",
            "type": "function"
        }
    ],
    "bytecode": "0x608060405234801561001057600080fd5b50336000806101000a81548173ffffffffffffffffffffffffffffffffffffffff021916908373ffffffffffffffffffffffffffffffffffffffff160217905550610e6f806100606000396000f3fe60806040526004361061004a5760003560e01c806365a5095c1461004f57806377508b4b146100665780639e0551c614610091578063a597d66f146100ce578063d5091834146100d8575b600080fd5b34801561005b57600080fd5b50610064610103565b005b34801561007257600080fd5b5061007b6102a2565b60405161008891906107f0565b60405180910390f35b34801561009d57600080fd5b506100b860048036038101906100b3919061084d565b610330565b6040516100c59190610889565b60405180910390f35b6100d661036f565b005b3480156100e457600080fd5b506100ed6104fb565b6040516100fa91906108c5565b60405180910390f35b60008054906101000a900473ffffffffffffffffffffffffffffffffffffffff1673ffffffffffffffffffffffffffffffffffffffff163373ffffffffffffffffffffffffffffffffffffffff1614610191576040517f08c379a00000000000000000000000000000000000000000000000000000000081526004016101889061093d565b60405180910390fd5b600061019b61051f565b90506000309050600182815481106101b6576101b561095d565b5b9060005260206000200160009054906101000a900473ffffffffffffffffffffffffffffffffffffffff1673ffffffffffffffffffffffffffffffffffffffff166108fc8273ffffffffffffffffffffffffffffffffffffffff16319081150290604051600060405180830381858888f1935050505015801561023d573d6000803e3d6000fd5b50600067ffffffffffffffff8111156102595761025861098c565b5b6040519080825280602002602001820160405280156102875781602001602082028036833780820191505090505b506001908051906020019061029d929190610659565b505050565b6060600180548060200260200160405190810160405280929190818152602001828054801561032657602002820191906000526020600020905b8160009054906101000a900473ffffffffffffffffffffffffffffffffffffffff1673ffffffffffffffffffffffffffffffffffffffff16815260200190600101908083116102dc575b5050505050905090565b6001818154811061034057600080fd5b906000526020600020016000915054906101000a900473ffffffffffffffffffffffffffffffffffffffff1681565b60008054906101000a900473ffffffffffffffffffffffffffffffffffffffff1673ffffffffffffffffffffffffffffffffffffffff163373ffffffffffffffffffffffffffffffffffffffff16036103fd576040517f08c379a00000000000000000000000000000000000000000000000000000000081526004016103f490610a07565b60405180910390fd5b600015156104096105ad565b15151461044b576040517f08c379a000000000000000000000000000000000000000000000000000000000815260040161044290610a73565b60405180910390fd5b670de0b6b3a7640000341015610496576040517f08c379a000000000000000000000000000000000000000000000000000000000815260040161048d90610adf565b60405180910390fd5b6001339080600181540180825580915050600190039060005260206000200160009091909190916101000a81548173ffffffffffffffffffffffffffffffffffffffff021916908373ffffffffffffffffffffffffffffffffffffffff160217905550565b60008054906101000a900473ffffffffffffffffffffffffffffffffffffffff1681565b600060018054905060024443600160405160200161053f93929190610c3e565b60405160208183030381529060405260405161055b9190610ce8565b602060405180830381855afa158015610578573d6000803e3d6000fd5b5050506040513d601f19601f8201168201806040525081019061059b9190610d35565b60001c6105a89190610d91565b905090565b600080600090505b600180549050811015610650573373ffffffffffffffffffffffffffffffffffffffff16600182815481106105ed576105ec61095d565b5b9060005260206000200160009054906101000a900473ffffffffffffffffffffffffffffffffffffffff1673ffffffffffffffffffffffffffffffffffffffff160361063d576001915050610656565b808061064890610df1565b9150506105b5565b50600090505b90565b8280548282559060005260206000209081019282156106d2579160200282015b828111156106d15782518260006101000a81548173ffffffffffffffffffffffffffffffffffffffff021916908373ffffffffffffffffffffffffffffffffffffffff16021790555091602001919060010190610679565b5b5090506106df91906106e3565b5090565b5b808211156106fc5760008160009055506001016106e4565b5090565b600081519050919050565b600082825260208201905092915050565b6000819050602082019050919050565b600073ffffffffffffffffffffffffffffffffffffffff82169050919050565b60006107578261072c565b9050919050565b6107678161074c565b82525050565b6000610779838361075e565b60208301905092915050565b6000602082019050919050565b600061079d82610700565b6107a7818561070b565b93506107b28361071c565b8060005b838110156107e35781516107ca888261076d565b97506107d583610785565b9250506001810190506107b6565b5085935050505092915050565b6000602082019050818103600083015261080a8184610792565b905092915050565b600080fd5b6000819050919050565b61082a81610817565b811461083557600080fd5b50565b60008135905061084781610821565b92915050565b60006020828403121561086357610862610812565b5b600061087184828501610838565b91505092915050565b6108838161074c565b82525050565b600060208201905061089e600083018461087a565b92915050565b60006108af8261072c565b9050919050565b6108bf816108a4565b82525050565b60006020820190506108da60008301846108b6565b92915050565b600082825260208201905092915050565b7f57696e207069632073686f756465206265206d616e6567657200000000000000600082015250565b60006109276019836108e0565b9150610932826108f1565b602082019050919050565b600060208201905081810360008301526109568161091a565b9050919050565b7f4e487b7100000000000000000000000000000000000000000000000000000000600052603260045260246000fd5b7f4e487b7100000000000000000000000000000000000000000000000000000000600052604160045260246000fd5b7f4d616e65676572206e6f7420656e746572206c6f746572790000000000000000600082015250565b60006109f16018836108e0565b91506109fc826109bb565b602082019050919050565b60006020820190508181036000830152610a20816109e4565b9050919050565b7f416e7920706c6179657220656e746572206f6e6c79206f6e652074696d657300600082015250565b6000610a5d601f836108e0565b9150610a6882610a27565b602082019050919050565b60006020820190508181036000830152610a8c81610a50565b9050919050565b7f4d696e696d756d20666565203120657468657200000000000000000000000000600082015250565b6000610ac96013836108e0565b9150610ad482610a93565b602082019050919050565b60006020820190508181036000830152610af881610abc565b9050919050565b6000819050919050565b610b1a610b1582610817565b610aff565b82525050565b600081549050919050565b600081905092915050565b60008190508160005260206000209050919050565b610b548161074c565b82525050565b6000610b668383610b4b565b60208301905092915050565b60008160001c9050919050565b600073ffffffffffffffffffffffffffffffffffffffff82169050919050565b6000610bb2610bad83610b72565b610b7f565b9050919050565b6000610bc58254610b9f565b9050919050565b6000600182019050919050565b6000610be482610b20565b610bee8185610b2b565b9350610bf983610b36565b8060005b83811015610c3157610c0e82610bb9565b610c188882610b5a565b9750610c2383610bcc565b925050600181019050610bfd565b5085935050505092915050565b6000610c4a8286610b09565b602082019150610c5a8285610b09565b602082019150610c6a8284610bd9565b9150819050949350505050565b600081519050919050565b600081905092915050565b60005b83811015610cab578082015181840152602081019050610c90565b60008484015250505050565b6000610cc282610c77565b610ccc8185610c82565b9350610cdc818560208601610c8d565b80840191505092915050565b6000610cf48284610cb7565b915081905092915050565b6000819050919050565b610d1281610cff565b8114610d1d57600080fd5b50565b600081519050610d2f81610d09565b92915050565b600060208284031215610d4b57610d4a610812565b5b6000610d5984828501610d20565b91505092915050565b7f4e487b7100000000000000000000000000000000000000000000000000000000600052601260045260246000fd5b6000610d9c82610817565b9150610da783610817565b925082610db757610db6610d62565b5b828206905092915050565b7f4e487b7100000000000000000000000000000000000000000000000000000000600052601160045260246000fd5b6000610dfc82610817565b91507fffffffffffffffffffffffffffffffffffffffffffffffffffffffffffffffff8203610e2e57610e2d610dc2565b5b60018201905091905056fea2646970667358221220345df6ce51498083632745e1df21e0d2043baf044f3189c3090830e71590ea8864736f6c63430008130033",
    "linkReferences": {},
    "deployedLinkReferences": {}
}