{
  "_format": "hh-sol-artifact-1",
  "contractName": "funding",
  "sourceName": "contracts/funding.sol",
  "abi": [
    {
      "inputs": [],
      "stateMutability": "nonpayable",
      "type": "constructor"
    },
    {
      "inputs": [],
      "name": "getData",
      "outputs": [
        {
          "components": [
            {
              "internalType": "string",
              "name": "name",
              "type": "string"
            },
            {
              "internalType": "string",
              "name": "message",
              "type": "string"
            },
            {
              "internalType": "uint256",
              "name": "timestamp",
              "type": "uint256"
            },
            {
              "internalType": "address",
              "name": "from",
              "type": "address"
            }
          ],
          "internalType": "struct funding.Data[]",
          "name": "",
          "type": "tuple[]"
        }
      ],
      "stateMutability": "view",
      "type": "function"
    },
    {
      "inputs": [],
      "name": "massagef",
      "outputs": [
        {
          "internalType": "address",
          "name": "",
          "type": "address"
        }
      ],
      "stateMutability": "view",
      "type": "function"
    },
    {
      "inputs": [
        {
          "internalType": "string",
          "name": "name",
          "type": "string"
        },
        {
          "internalType": "string",
          "name": "message",
          "type": "string"
        }
      ],
      "name": "sendMoney",
      "outputs": [],
      "stateMutability": "payable",
      "type": "function"
    }
  ],
  "bytecode": "0x608060405234801561001057600080fd5b5033600160006101000a81548173ffffffffffffffffffffffffffffffffffffffff021916908373ffffffffffffffffffffffffffffffffffffffff160217905550610bfd806100616000396000f3fe6080604052600436106100345760003560e01c806327350034146100395780633bc5de30146100645780636a7243b21461008f575b600080fd5b34801561004557600080fd5b5061004e6100ab565b60405161005b919061048a565b60405180910390f35b34801561007057600080fd5b506100796100d5565b6040516100869190610689565b60405180910390f35b6100a960048036038101906100a491906107f4565b6102b8565b005b6000600160009054906101000a900473ffffffffffffffffffffffffffffffffffffffff16905090565b60606000805480602002602001604051908101604052809291908181526020016000905b828210156102af578382906000526020600020906004020160405180608001604052908160008201805461012c9061089b565b80601f01602080910402602001604051908101604052809291908181526020018280546101589061089b565b80156101a55780601f1061017a576101008083540402835291602001916101a5565b820191906000526020600020905b81548152906001019060200180831161018857829003601f168201915b505050505081526020016001820180546101be9061089b565b80601f01602080910402602001604051908101604052809291908181526020018280546101ea9061089b565b80156102375780601f1061020c57610100808354040283529160200191610237565b820191906000526020600020905b81548152906001019060200180831161021a57829003601f168201915b50505050508152602001600282015481526020016003820160009054906101000a900473ffffffffffffffffffffffffffffffffffffffff1673ffffffffffffffffffffffffffffffffffffffff1673ffffffffffffffffffffffffffffffffffffffff1681525050815260200190600101906100f9565b50505050905090565b600034116102fb576040517f08c379a00000000000000000000000000000000000000000000000000000000081526004016102f290610929565b60405180910390fd5b600160009054906101000a900473ffffffffffffffffffffffffffffffffffffffff1673ffffffffffffffffffffffffffffffffffffffff166108fc349081150290604051600060405180830381858888f19350505050158015610363573d6000803e3d6000fd5b50600060405180608001604052808481526020018381526020014281526020013373ffffffffffffffffffffffffffffffffffffffff16815250908060018154018082558091505060019003906000526020600020906004020160009091909190915060008201518160000190816103db9190610af5565b5060208201518160010190816103f19190610af5565b506040820151816002015560608201518160030160006101000a81548173ffffffffffffffffffffffffffffffffffffffff021916908373ffffffffffffffffffffffffffffffffffffffff16021790555050505050565b600073ffffffffffffffffffffffffffffffffffffffff82169050919050565b600061047482610449565b9050919050565b61048481610469565b82525050565b600060208201905061049f600083018461047b565b92915050565b600081519050919050565b600082825260208201905092915050565b6000819050602082019050919050565b600081519050919050565b600082825260208201905092915050565b60005b8381101561050b5780820151818401526020810190506104f0565b60008484015250505050565b6000601f19601f8301169050919050565b6000610533826104d1565b61053d81856104dc565b935061054d8185602086016104ed565b61055681610517565b840191505092915050565b6000819050919050565b61057481610561565b82525050565b61058381610469565b82525050565b600060808301600083015184820360008601526105a68282610528565b915050602083015184820360208601526105c08282610528565b91505060408301516105d5604086018261056b565b5060608301516105e8606086018261057a565b508091505092915050565b60006105ff8383610589565b905092915050565b6000602082019050919050565b600061061f826104a5565b61062981856104b0565b93508360208202850161063b856104c1565b8060005b85811015610677578484038952815161065885826105f3565b945061066383610607565b925060208a0199505060018101905061063f565b50829750879550505050505092915050565b600060208201905081810360008301526106a38184610614565b905092915050565b6000604051905090565b600080fd5b600080fd5b600080fd5b600080fd5b7f4e487b7100000000000000000000000000000000000000000000000000000000600052604160045260246000fd5b61070182610517565b810181811067ffffffffffffffff821117156107205761071f6106c9565b5b80604052505050565b60006107336106ab565b905061073f82826106f8565b919050565b600067ffffffffffffffff82111561075f5761075e6106c9565b5b61076882610517565b9050602081019050919050565b82818337600083830152505050565b600061079761079284610744565b610729565b9050828152602081018484840111156107b3576107b26106c4565b5b6107be848285610775565b509392505050565b600082601f8301126107db576107da6106bf565b5b81356107eb848260208601610784565b91505092915050565b6000806040838503121561080b5761080a6106b5565b5b600083013567ffffffffffffffff811115610829576108286106ba565b5b610835858286016107c6565b925050602083013567ffffffffffffffff811115610856576108556106ba565b5b610862858286016107c6565b9150509250929050565b7f4e487b7100000000000000000000000000000000000000000000000000000000600052602260045260246000fd5b600060028204905060018216806108b357607f821691505b6020821081036108c6576108c561086c565b5b50919050565b600082825260208201905092915050565b7f506c65617365207061792067726561746572207468616e203020657468657200600082015250565b6000610913601f836108cc565b915061091e826108dd565b602082019050919050565b6000602082019050818103600083015261094281610906565b9050919050565b60008190508160005260206000209050919050565b60006020601f8301049050919050565b600082821b905092915050565b6000600883026109ab7fffffffffffffffffffffffffffffffffffffffffffffffffffffffffffffffff8261096e565b6109b5868361096e565b95508019841693508086168417925050509392505050565b6000819050919050565b60006109f26109ed6109e884610561565b6109cd565b610561565b9050919050565b6000819050919050565b610a0c836109d7565b610a20610a18826109f9565b84845461097b565b825550505050565b600090565b610a35610a28565b610a40818484610a03565b505050565b5b81811015610a6457610a59600082610a2d565b600181019050610a46565b5050565b601f821115610aa957610a7a81610949565b610a838461095e565b81016020851015610a92578190505b610aa6610a9e8561095e565b830182610a45565b50505b505050565b600082821c905092915050565b6000610acc60001984600802610aae565b1980831691505092915050565b6000610ae58383610abb565b9150826002028217905092915050565b610afe826104d1565b67ffffffffffffffff811115610b1757610b166106c9565b5b610b21825461089b565b610b2c828285610a68565b600060209050601f831160018114610b5f5760008415610b4d578287015190505b610b578582610ad9565b865550610bbf565b601f198416610b6d86610949565b60005b82811015610b9557848901518255600182019150602085019450602081019050610b70565b86831015610bb25784890151610bae601f891682610abb565b8355505b6001600288020188555050505b50505050505056fea26469706673582212205e9ce83fcccf46a74a6232fe9b8a43b7d3bd2701af46353634771d68818bbda864736f6c63430008130033",
  "linkReferences": {},
  "deployedLinkReferences": {}
}